{
  "_format": "hh-sol-artifact-1",
  "contractName": "LotteryUC",
  "sourceName": "contracts/LotteryUC.sol",
  "abi": [
    {
      "inputs": [
        {
          "internalType": "address",
          "name": "_middleware",
          "type": "address"
        }
      ],
      "stateMutability": "nonpayable",
      "type": "constructor"
    },
    {
      "anonymous": false,
      "inputs": [
        {
          "indexed": false,
          "internalType": "address",
          "name": "user",
          "type": "address"
        },
        {
          "indexed": false,
          "internalType": "uint8",
          "name": "round",
          "type": "uint8"
        },
        {
          "indexed": false,
          "internalType": "enum LotteryUC.LotteryBridgeDirection",
          "name": "direction",
          "type": "uint8"
        }
      ],
      "name": "BridgeAcknowledged",
      "type": "event"
    },
    {
      "anonymous": false,
      "inputs": [
        {
          "indexed": false,
          "internalType": "address",
          "name": "user",
          "type": "address"
        },
        {
          "indexed": false,
          "internalType": "uint8",
          "name": "round",
          "type": "uint8"
        },
        {
          "indexed": false,
          "internalType": "enum LotteryUC.LotteryBridgeDirection",
          "name": "direction",
          "type": "uint8"
        }
      ],
      "name": "BridgeReceived",
      "type": "event"
    },
    {
      "anonymous": false,
      "inputs": [
        {
          "indexed": false,
          "internalType": "address",
          "name": "user",
          "type": "address"
        },
        {
          "indexed": false,
          "internalType": "uint8",
          "name": "round",
          "type": "uint8"
        },
        {
          "indexed": false,
          "internalType": "enum LotteryUC.LotteryBridgeDirection",
          "name": "direction",
          "type": "uint8"
        }
      ],
      "name": "BridgeStarted",
      "type": "event"
    },
    {
      "anonymous": false,
      "inputs": [
        {
          "indexed": false,
          "internalType": "uint256",
          "name": "startTime",
          "type": "uint256"
        }
      ],
      "name": "LotteryStarted",
      "type": "event"
    },
    {
      "anonymous": false,
      "inputs": [
        {
          "indexed": true,
          "internalType": "address",
          "name": "previousOwner",
          "type": "address"
        },
        {
          "indexed": true,
          "internalType": "address",
          "name": "newOwner",
          "type": "address"
        }
      ],
      "name": "OwnershipTransferred",
      "type": "event"
    },
    {
      "inputs": [
        {
          "internalType": "uint256",
          "name": "",
          "type": "uint256"
        }
      ],
      "name": "ackPackets",
      "outputs": [
        {
          "internalType": "bytes32",
          "name": "channelId",
          "type": "bytes32"
        },
        {
          "components": [
            {
              "internalType": "bytes32",
              "name": "srcPortAddr",
              "type": "bytes32"
            },
            {
              "internalType": "uint256",
              "name": "mwBitmap",
              "type": "uint256"
            },
            {
              "internalType": "bytes32",
              "name": "destPortAddr",
              "type": "bytes32"
            },
            {
              "internalType": "bytes",
              "name": "appData",
              "type": "bytes"
            }
          ],
          "internalType": "struct UniversalPacket",
          "name": "packet",
          "type": "tuple"
        },
        {
          "components": [
            {
              "internalType": "bool",
              "name": "success",
              "type": "bool"
            },
            {
              "internalType": "bytes",
              "name": "data",
              "type": "bytes"
            }
          ],
          "internalType": "struct AckPacket",
          "name": "ack",
          "type": "tuple"
        }
      ],
      "stateMutability": "view",
      "type": "function"
    },
    {
      "inputs": [
        {
          "internalType": "address",
          "name": "middleware",
          "type": "address"
        }
      ],
      "name": "authorizeMiddleware",
      "outputs": [],
      "stateMutability": "nonpayable",
      "type": "function"
    },
    {
      "inputs": [
        {
          "internalType": "address",
          "name": "",
          "type": "address"
        }
      ],
      "name": "authorizedMws",
      "outputs": [
        {
          "internalType": "bool",
          "name": "",
          "type": "bool"
        }
      ],
      "stateMutability": "view",
      "type": "function"
    },
    {
      "inputs": [
        {
          "internalType": "address",
          "name": "destPortAddr",
          "type": "address"
        },
        {
          "internalType": "bytes32",
          "name": "channelId",
          "type": "bytes32"
        },
        {
          "internalType": "uint64",
          "name": "timeoutSeconds",
          "type": "uint64"
        }
      ],
      "name": "bridge",
      "outputs": [],
      "stateMutability": "nonpayable",
      "type": "function"
    },
    {
      "inputs": [
        {
          "internalType": "uint256",
          "name": "",
          "type": "uint256"
        }
      ],
      "name": "bridges",
      "outputs": [
        {
          "internalType": "address",
          "name": "user",
          "type": "address"
        },
        {
          "internalType": "uint8",
          "name": "round",
          "type": "uint8"
        },
        {
          "internalType": "enum LotteryUC.LotteryBridgeDirection",
          "name": "direction",
          "type": "uint8"
        },
        {
          "internalType": "uint256",
          "name": "timestamp",
          "type": "uint256"
        }
      ],
      "stateMutability": "view",
      "type": "function"
    },
    {
      "inputs": [],
      "name": "currentDirection",
      "outputs": [
        {
          "internalType": "enum LotteryUC.LotteryBridgeDirection",
          "name": "",
          "type": "uint8"
        }
      ],
      "stateMutability": "view",
      "type": "function"
    },
    {
      "inputs": [],
      "name": "deployer",
      "outputs": [
        {
          "internalType": "address",
          "name": "",
          "type": "address"
        }
      ],
      "stateMutability": "view",
      "type": "function"
    },
    {
      "inputs": [],
      "name": "determineRound",
      "outputs": [
        {
          "internalType": "uint8",
          "name": "",
          "type": "uint8"
        }
      ],
      "stateMutability": "view",
      "type": "function"
    },
    {
      "inputs": [],
      "name": "getAllBridges",
      "outputs": [
        {
          "components": [
            {
              "internalType": "address",
              "name": "user",
              "type": "address"
            },
            {
              "internalType": "uint8",
              "name": "round",
              "type": "uint8"
            },
            {
              "internalType": "enum LotteryUC.LotteryBridgeDirection",
              "name": "direction",
              "type": "uint8"
            },
            {
              "internalType": "uint256",
              "name": "timestamp",
              "type": "uint256"
            }
          ],
          "internalType": "struct LotteryUC.Bridge[]",
          "name": "",
          "type": "tuple[]"
        }
      ],
      "stateMutability": "view",
      "type": "function"
    },
    {
      "inputs": [],
      "name": "isLotteryOver",
      "outputs": [
        {
          "internalType": "bool",
          "name": "",
          "type": "bool"
        }
      ],
      "stateMutability": "view",
      "type": "function"
    },
    {
      "inputs": [],
      "name": "mw",
      "outputs": [
        {
          "internalType": "address",
          "name": "",
          "type": "address"
        }
      ],
      "stateMutability": "view",
      "type": "function"
    },
    {
      "inputs": [
        {
          "internalType": "bytes32",
          "name": "channelId",
          "type": "bytes32"
        },
        {
          "components": [
            {
              "internalType": "bytes32",
              "name": "srcPortAddr",
              "type": "bytes32"
            },
            {
              "internalType": "uint256",
              "name": "mwBitmap",
              "type": "uint256"
            },
            {
              "internalType": "bytes32",
              "name": "destPortAddr",
              "type": "bytes32"
            },
            {
              "internalType": "bytes",
              "name": "appData",
              "type": "bytes"
            }
          ],
          "internalType": "struct UniversalPacket",
          "name": "packet",
          "type": "tuple"
        }
      ],
      "name": "onRecvUniversalPacket",
      "outputs": [
        {
          "components": [
            {
              "internalType": "bool",
              "name": "success",
              "type": "bool"
            },
            {
              "internalType": "bytes",
              "name": "data",
              "type": "bytes"
            }
          ],
          "internalType": "struct AckPacket",
          "name": "ackPacket",
          "type": "tuple"
        }
      ],
      "stateMutability": "nonpayable",
      "type": "function"
    },
    {
      "inputs": [
        {
          "internalType": "bytes32",
          "name": "channelId",
          "type": "bytes32"
        },
        {
          "components": [
            {
              "internalType": "bytes32",
              "name": "srcPortAddr",
              "type": "bytes32"
            },
            {
              "internalType": "uint256",
              "name": "mwBitmap",
              "type": "uint256"
            },
            {
              "internalType": "bytes32",
              "name": "destPortAddr",
              "type": "bytes32"
            },
            {
              "internalType": "bytes",
              "name": "appData",
              "type": "bytes"
            }
          ],
          "internalType": "struct UniversalPacket",
          "name": "packet",
          "type": "tuple"
        }
      ],
      "name": "onTimeoutUniversalPacket",
      "outputs": [],
      "stateMutability": "nonpayable",
      "type": "function"
    },
    {
      "inputs": [
        {
          "internalType": "bytes32",
          "name": "channelId",
          "type": "bytes32"
        },
        {
          "components": [
            {
              "internalType": "bytes32",
              "name": "srcPortAddr",
              "type": "bytes32"
            },
            {
              "internalType": "uint256",
              "name": "mwBitmap",
              "type": "uint256"
            },
            {
              "internalType": "bytes32",
              "name": "destPortAddr",
              "type": "bytes32"
            },
            {
              "internalType": "bytes",
              "name": "appData",
              "type": "bytes"
            }
          ],
          "internalType": "struct UniversalPacket",
          "name": "packet",
          "type": "tuple"
        },
        {
          "components": [
            {
              "internalType": "bool",
              "name": "success",
              "type": "bool"
            },
            {
              "internalType": "bytes",
              "name": "data",
              "type": "bytes"
            }
          ],
          "internalType": "struct AckPacket",
          "name": "ack",
          "type": "tuple"
        }
      ],
      "name": "onUniversalAcknowledgement",
      "outputs": [],
      "stateMutability": "nonpayable",
      "type": "function"
    },
    {
      "inputs": [],
      "name": "owner",
      "outputs": [
        {
          "internalType": "address",
          "name": "",
          "type": "address"
        }
      ],
      "stateMutability": "view",
      "type": "function"
    },
    {
      "inputs": [
        {
          "internalType": "uint256",
          "name": "",
          "type": "uint256"
        }
      ],
      "name": "recvedPackets",
      "outputs": [
        {
          "internalType": "bytes32",
          "name": "channelId",
          "type": "bytes32"
        },
        {
          "components": [
            {
              "internalType": "bytes32",
              "name": "srcPortAddr",
              "type": "bytes32"
            },
            {
              "internalType": "uint256",
              "name": "mwBitmap",
              "type": "uint256"
            },
            {
              "internalType": "bytes32",
              "name": "destPortAddr",
              "type": "bytes32"
            },
            {
              "internalType": "bytes",
              "name": "appData",
              "type": "bytes"
            }
          ],
          "internalType": "struct UniversalPacket",
          "name": "packet",
          "type": "tuple"
        }
      ],
      "stateMutability": "view",
      "type": "function"
    },
    {
      "inputs": [],
      "name": "renounceOwnership",
      "outputs": [],
      "stateMutability": "nonpayable",
      "type": "function"
    },
    {
      "inputs": [
        {
          "internalType": "uint8",
          "name": "",
          "type": "uint8"
        }
      ],
      "name": "roundDirections",
      "outputs": [
        {
          "internalType": "enum LotteryUC.LotteryBridgeDirection",
          "name": "",
          "type": "uint8"
        }
      ],
      "stateMutability": "view",
      "type": "function"
    },
    {
      "inputs": [
        {
          "internalType": "address",
          "name": "_middleware",
          "type": "address"
        }
      ],
      "name": "setDefaultMw",
      "outputs": [],
      "stateMutability": "nonpayable",
      "type": "function"
    },
    {
      "inputs": [
        {
          "internalType": "uint256",
          "name": "_startTime",
          "type": "uint256"
        }
      ],
      "name": "setStartTime",
      "outputs": [],
      "stateMutability": "nonpayable",
      "type": "function"
    },
    {
      "inputs": [],
      "name": "startTime",
      "outputs": [
        {
          "internalType": "uint256",
          "name": "",
          "type": "uint256"
        }
      ],
      "stateMutability": "view",
      "type": "function"
    },
    {
      "inputs": [
        {
          "internalType": "uint256",
          "name": "",
          "type": "uint256"
        }
      ],
      "name": "timeoutPackets",
      "outputs": [
        {
          "internalType": "bytes32",
          "name": "channelId",
          "type": "bytes32"
        },
        {
          "components": [
            {
              "internalType": "bytes32",
              "name": "srcPortAddr",
              "type": "bytes32"
            },
            {
              "internalType": "uint256",
              "name": "mwBitmap",
              "type": "uint256"
            },
            {
              "internalType": "bytes32",
              "name": "destPortAddr",
              "type": "bytes32"
            },
            {
              "internalType": "bytes",
              "name": "appData",
              "type": "bytes"
            }
          ],
          "internalType": "struct UniversalPacket",
          "name": "packet",
          "type": "tuple"
        }
      ],
      "stateMutability": "view",
      "type": "function"
    },
    {
      "inputs": [
        {
          "internalType": "address",
          "name": "newOwner",
          "type": "address"
        }
      ],
      "name": "transferOwnership",
      "outputs": [],
      "stateMutability": "nonpayable",
      "type": "function"
    },
    {
      "inputs": [
        {
          "internalType": "uint8",
          "name": "",
          "type": "uint8"
        },
        {
          "internalType": "address",
          "name": "",
          "type": "address"
        }
      ],
      "name": "userBridges",
      "outputs": [
        {
          "internalType": "bool",
          "name": "",
          "type": "bool"
        }
      ],
      "stateMutability": "view",
      "type": "function"
    },
    {
      "stateMutability": "payable",
      "type": "receive"
    }
  ],
  "bytecode": "0x60806040526000600a55600b805464ffffffffff191662012c041790553480156200002957600080fd5b5060405162002150380380620021508339810160408190526200004c91620002c9565b8080620000593362000112565b600180546001600160a01b0319166001600160a01b0383161790556200009d816001600160a01b03166000908152600260205260409020805460ff19166001179055565b5050600680546001600160a01b0319163317905542600a55620000bf62000162565b6000805260096020527fec8156718a8372b1db44bb411437d0870f3e3790d4a08526d024ce1b0b668f6b805460ff19166001836002811115620001065762000106620002fb565b0217905550506200037d565b600080546001600160a01b038381166001600160a01b0319831681178455604051919092169283917f8be0079c531659141344cd1fd0a4f28419497f9722a3daafe3b4186f6b6457e09190a35050565b6000804244336200017262000297565b604051602001620001ce9493929190938452602084019290925260601b6001600160601b031916604083015260f81b7fff0000000000000000000000000000000000000000000000000000000000000016605482015260550190565b60408051601f1981840301815291905280516020909101209050620001f560028262000327565b6000036200024a576001600960006200020d62000297565b60ff1681526020810191909152604001600020805460ff191660018360028111156200023d576200023d620002fb565b0217905550600191505090565b6002600960006200025a62000297565b60ff1681526020810191909152604001600020805460ff191660018360028111156200028a576200028a620002fb565b0217905550600291505090565b600b54600a54600091610100900463ffffffff1690620002b890426200033e565b620002c4919062000366565b905090565b600060208284031215620002dc57600080fd5b81516001600160a01b0381168114620002f457600080fd5b9392505050565b634e487b7160e01b600052602160045260246000fd5b634e487b7160e01b600052601260045260246000fd5b60008262000339576200033962000311565b500690565b818103818111156200036057634e487b7160e01b600052601160045260246000fd5b92915050565b60008262000378576200037862000311565b500490565b611dc3806200038d6000396000f3fe60806040526004361061014e5760003560e01c80635b761585116100b657806396b080da1161006f57806396b080da1461042c578063a3c4470514610441578063a742d78c14610471578063d5f3948814610491578063f12b758a146104b1578063f2fde38b146104d157600080fd5b80635b76158514610337578063715018a61461036457806372cbdcc81461037957806378e979251461039b57806386e9f53b146103bf5780638da5cb5b146103fa57600080fd5b80633e0a322d116101085780633e0a322d14610265578063400d9f5d146102855780634252ae9b146102a55780634eeb7391146102d457806352e4b39514610302578063588152ca1461031757600080fd5b8062e82cef1461015a5780632bf717961461017c57806331be3509146101a85780633a7fbcbd146101c85780633b90b042146102085780633b9640631461022857600080fd5b3661015557005b600080fd5b34801561016657600080fd5b5061017a6101753660046114f6565b6104f1565b005b34801561018857600080fd5b50610191610524565b60405160ff90911681526020015b60405180910390f35b3480156101b457600080fd5b5061017a6101c336600461151a565b610552565b3480156101d457600080fd5b506101f86101e33660046114f6565b60026020526000908152604090205460ff1681565b604051901515815260200161019f565b34801561021457600080fd5b5061017a6102233660046114f6565b6108b9565b34801561023457600080fd5b5061025861024336600461157f565b60096020526000908152604090205460ff1681565b60405161019f91906115d2565b34801561027157600080fd5b5061017a6102803660046115e0565b6108cd565b34801561029157600080fd5b5061017a6102a03660046115f9565b610962565b3480156102b157600080fd5b506102c56102c03660046115e0565b610a0f565b60405161019f939291906116e9565b3480156102e057600080fd5b506102f46102ef3660046115e0565b610bb3565b60405161019f92919061171e565b34801561030e57600080fd5b506101f8610ca1565b34801561032357600080fd5b5061017a61033236600461185d565b610cbc565b34801561034357600080fd5b506103576103523660046115f9565b610e1f565b60405161019f91906118c6565b34801561037057600080fd5b5061017a611130565b34801561038557600080fd5b5061038e611144565b60405161019f91906118d9565b3480156103a757600080fd5b506103b1600a5481565b60405190815260200161019f565b3480156103cb57600080fd5b506101f86103da366004611952565b600760209081526000928352604080842090915290825290205460ff1681565b34801561040657600080fd5b506000546001600160a01b03165b6040516001600160a01b03909116815260200161019f565b34801561043857600080fd5b50610258611205565b34801561044d57600080fd5b5061046161045c3660046115e0565b61122f565b60405161019f949392919061197e565b34801561047d57600080fd5b50600154610414906001600160a01b031681565b34801561049d57600080fd5b50600654610414906001600160a01b031681565b3480156104bd57600080fd5b506102f46104cc3660046115e0565b61127b565b3480156104dd57600080fd5b5061017a6104ec3660046114f6565b61128b565b6104f9611301565b6105028161135b565b600180546001600160a01b0319166001600160a01b0392909216919091179055565b600b54600a54600091610100900463ffffffff169061054390426119c9565b61054d91906119f2565b905090565b600a546000036105a25760405162461bcd60e51b8152602060048201526016602482015275131bdd1d195c9e481a5cc81b9bdd081cdd185c9d195960521b60448201526064015b60405180910390fd5b6105aa610ca1565b156105e95760405162461bcd60e51b815260206004820152600f60248201526e2637ba3a32b93c9034b99037bb32b960891b6044820152606401610599565b42600a54106106335760405162461bcd60e51b8152602060048201526016602482015275131bdd1d195c9e481a5cc81b9bdd081cdd185c9d195960521b6044820152606401610599565b600061063d610524565b600b5490915060ff9081169082161061068a5760405162461bcd60e51b815260206004820152600f60248201526e2637ba3a32b93c9034b99037bb32b960891b6044820152606401610599565b60ff808216600090815260076020908152604080832033845290915290205416156106f75760405162461bcd60e51b815260206004820152601860248201527f596f75206861766520616c7265616479206272696467656400000000000000006044820152606401610599565b60ff811660009081526007602090815260408083203384529091528120805460ff1916600117905560ff8083166000908152600960205260409020541660028111156107455761074561159a565b036107845761075261137f565b60ff82166000908152600960205260409020805460ff1916600183600281111561077e5761077e61159a565b02179055505b60ff808216600090815260096020908152604080832054905192936107b193339387939092169101611a06565b60408051601f19818403018152919052905060006107d967ffffffffffffffff851642611a2c565b6107e790633b9aca00611a3f565b6001549091506001600160a01b0316631f3a58308661080c896001600160a01b031690565b85856040518563ffffffff1660e01b815260040161082d9493929190611a56565b600060405180830381600087803b15801561084757600080fd5b505af115801561085b573d6000803e3d6000fd5b50505060ff808516600090815260096020526040908190205490517f53e7aa4fd80c2b93ecc2e84efb101a62d77feb653ca9220ea572486f3b37148693506108a99233928892911690611a06565b60405180910390a1505050505050565b6108c1611301565b6108ca8161135b565b50565b6006546001600160a01b031633146109275760405162461bcd60e51b815260206004820181905260248201527f4f6e6c79206465706c6f7965722063616e207365742073746172742074696d656044820152606401610599565b600a8190556040518181527f3d01c4ba0165a3f9c01ca4916efd5efd92dd9ac07569ff74d7047c7cde6683499060200160405180910390a150565b3360009081526002602052604090205460ff166109915760405162461bcd60e51b815260040161059990611a90565b60056040518060400160405280848152602001836109ae90611ac7565b905281546001818101845560009384526020938490208351600590930201918255838301518051918301918255938401516002830155604084015160038301556060840151929391926004840190610a069082611b5e565b50505050505050565b60048181548110610a1f57600080fd5b906000526020600020906007020160009150905080600001549080600101604051806080016040529081600082015481526020016001820154815260200160028201548152602001600382018054610a7690611ad3565b80601f0160208091040260200160405190810160405280929190818152602001828054610aa290611ad3565b8015610aef5780601f10610ac457610100808354040283529160200191610aef565b820191906000526020600020905b815481529060010190602001808311610ad257829003601f168201915b5050509190925250506040805180820190915260058401805460ff16151582526006850180549495949293509091602084019190610b2c90611ad3565b80601f0160208091040260200160405190810160405280929190818152602001828054610b5890611ad3565b8015610ba55780601f10610b7a57610100808354040283529160200191610ba5565b820191906000526020600020905b815481529060010190602001808311610b8857829003601f168201915b505050505081525050905083565b60058181548110610bc357600080fd5b906000526020600020906005020160009150905080600001549080600101604051806080016040529081600082015481526020016001820154815260200160028201548152602001600382018054610c1a90611ad3565b80601f0160208091040260200160405190810160405280929190818152602001828054610c4690611ad3565b8015610c935780601f10610c6857610100808354040283529160200191610c93565b820191906000526020600020905b815481529060010190602001808311610c7657829003601f168201915b505050505081525050905082565b600b5460009060ff16610cb2610524565b60ff161015905090565b3360009081526002602052604090205460ff16610ceb5760405162461bcd60e51b815260040161059990611a90565b6004604051806060016040528085815260200184815260200183610d0e90611c1e565b905281546001818101845560009384526020938490208351600790930201918255838301518051918301918255938401516002830155604084015160038301556060840151929391926004840190610d669082611b5e565b5050506040820151805160058301805460ff191691151591909117815560208201516006840190610d979082611b5e565b5050505050600080600080848060200190610db29190611c99565b810190610dbf9190611ce7565b93509350935093507f2c753b0f0de6cbc4027ac8209f67a1816e38f11e543e9aaf4177d6e1109f7a4a84848460ff166002811115610dff57610dff61159a565b604051610e0e93929190611a06565b60405180910390a150505050505050565b6040805180820190915260008152606060208201523360009081526002602052604090205460ff16610e635760405162461bcd60e51b815260040161059990611a90565b6003604051806040016040528085815260200184610e8090611ac7565b905281546001818101845560009384526020938490208351600590930201918255838301518051918301918255938401516002830155604084015160038301556060840151929391926004840190610ed89082611b5e565b50505050506000806000848060600190610ef29190611c99565b810190610eff9190611d34565b92509250925060086040518060800160405280856001600160a01b031681526020018460ff1681526020018360ff166002811115610f3f57610f3f61159a565b6002811115610f5057610f5061159a565b81524260209182015282546001810184556000938452928190208251600294850290910180549284015160ff16600160a01b026001600160a81b03199093166001600160a01b03909216919091179190911780825560408301519293919291839160ff60a81b191690600160a81b908490811115610fd057610fd061159a565b02179055506060919091015160019182015560ff83811660008181526007602090815260408083206001600160a01b038a1684528252808320805460ff19169096179095559181526009909152918220541660028111156110335761103361159a565b0361107f578060ff16600281111561104d5761104d61159a565b60ff83166000908152600960205260409020805460ff191660018360028111156110795761107961159a565b02179055505b7f9f8f35578320a24456b92651e1370d5939e47bf3dcfe72232c17a2f9fcf5a7d483838360ff1660028111156110b7576110b761159a565b6040516110c693929190611a06565b60405180910390a16040805180820182526001815281516001600160a01b03861660208281019190915260ff808716948301949094529284166060820152426080820152909182019060a00160405160208183030381529060405281525093505050505b92915050565b611138611301565b6111426000611491565b565b60606008805480602002602001604051908101604052809291908181526020016000905b828210156111fc57600084815260209081902060408051608081018252600280870290930180546001600160a01b038116835260ff600160a01b82048116968401969096529194909392850192600160a81b90920416908111156111ce576111ce61159a565b60028111156111df576111df61159a565b815260200160018201548152505081526020019060010190611168565b50505050905090565b600060096000611213610524565b60ff908116825260208201929092526040016000205416919050565b6008818154811061123f57600080fd5b6000918252602090912060029091020180546001909101546001600160a01b038216925060ff600160a01b8304811692600160a81b9004169084565b60038181548110610bc357600080fd5b611293611301565b6001600160a01b0381166112f85760405162461bcd60e51b815260206004820152602660248201527f4f776e61626c653a206e6577206f776e657220697320746865207a65726f206160448201526564647265737360d01b6064820152608401610599565b6108ca81611491565b6000546001600160a01b031633146111425760405162461bcd60e51b815260206004820181905260248201527f4f776e61626c653a2063616c6c6572206973206e6f7420746865206f776e65726044820152606401610599565b6001600160a01b03166000908152600260205260409020805460ff19166001179055565b60008042443361138d610524565b6040516020016113d59493929190938452602084019290925260601b6bffffffffffffffffffffffff1916604083015260f81b6001600160f81b031916605482015260550190565b60408051601f19818403018152919052805160209091012090506113fa600282611d79565b6000036114495760016009600061140f610524565b60ff1681526020810191909152604001600020805460ff1916600183600281111561143c5761143c61159a565b0217905550600191505090565b600260096000611457610524565b60ff1681526020810191909152604001600020805460ff191660018360028111156114845761148461159a565b0217905550600291505090565b600080546001600160a01b038381166001600160a01b0319831681178455604051919092169283917f8be0079c531659141344cd1fd0a4f28419497f9722a3daafe3b4186f6b6457e09190a35050565b6001600160a01b03811681146108ca57600080fd5b60006020828403121561150857600080fd5b8135611513816114e1565b9392505050565b60008060006060848603121561152f57600080fd5b833561153a816114e1565b925060208401359150604084013567ffffffffffffffff8116811461155e57600080fd5b809150509250925092565b803560ff8116811461157a57600080fd5b919050565b60006020828403121561159157600080fd5b61151382611569565b634e487b7160e01b600052602160045260246000fd5b600381106115ce57634e487b7160e01b600052602160045260246000fd5b9052565b6020810161112a82846115b0565b6000602082840312156115f257600080fd5b5035919050565b6000806040838503121561160c57600080fd5b82359150602083013567ffffffffffffffff81111561162a57600080fd5b83016080818603121561163c57600080fd5b809150509250929050565b6000815180845260005b8181101561166d57602081850181015186830182015201611651565b506000602082860101526020601f19601f83011685010191505092915050565b80518252602081015160208301526040810151604083015260006060820151608060608501526116c06080850182611647565b949350505050565b80511515825260006020820151604060208501526116c06040850182611647565b838152606060208201526000611702606083018561168d565b828103604084015261171481856116c8565b9695505050505050565b8281526040602082015260006116c0604083018461168d565b634e487b7160e01b600052604160045260246000fd5b600082601f83011261175e57600080fd5b813567ffffffffffffffff8082111561177957611779611737565b604051601f8301601f19908116603f011681019082821181831017156117a1576117a1611737565b816040528381528660208588010111156117ba57600080fd5b836020870160208301376000602085830101528094505050505092915050565b6000608082840312156117ec57600080fd5b6040516080810167ffffffffffffffff828210818311171561181057611810611737565b81604052829350843583526020850135602084015260408501356040840152606085013591508082111561184357600080fd5b506118508582860161174d565b6060830152505092915050565b60008060006060848603121561187257600080fd5b83359250602084013567ffffffffffffffff8082111561189157600080fd5b61189d878388016117da565b935060408601359150808211156118b357600080fd5b5084016040818703121561155e57600080fd5b60208152600061151360208301846116c8565b602080825282518282018190526000919060409081850190868401855b8281101561194557815180516001600160a01b031685528681015160ff168786015285810151611928878701826115b0565b5060609081015190850152608090930192908501906001016118f6565b5091979650505050505050565b6000806040838503121561196557600080fd5b61196e83611569565b9150602083013561163c816114e1565b6001600160a01b038516815260ff84166020820152608081016119a460408301856115b0565b82606083015295945050505050565b634e487b7160e01b600052601160045260246000fd5b8181038181111561112a5761112a6119b3565b634e487b7160e01b600052601260045260246000fd5b600082611a0157611a016119dc565b500490565b6001600160a01b038416815260ff83166020820152606081016116c060408301846115b0565b8082018082111561112a5761112a6119b3565b808202811582820484141761112a5761112a6119b3565b848152836020820152608060408201526000611a756080830185611647565b905067ffffffffffffffff8316606083015295945050505050565b6020808252601b908201527f756e617574686f72697a656420494243206d6964646c65776172650000000000604082015260600190565b600061112a36836117da565b600181811c90821680611ae757607f821691505b602082108103611b0757634e487b7160e01b600052602260045260246000fd5b50919050565b601f821115611b59576000816000526020600020601f850160051c81016020861015611b365750805b601f850160051c820191505b81811015611b5557828155600101611b42565b5050505b505050565b815167ffffffffffffffff811115611b7857611b78611737565b611b8c81611b868454611ad3565b84611b0d565b602080601f831160018114611bc15760008415611ba95750858301515b600019600386901b1c1916600185901b178555611b55565b600085815260208120601f198616915b82811015611bf057888601518255948401946001909101908401611bd1565b5085821015611c0e5787850151600019600388901b60f8161c191681555b5050505050600190811b01905550565b600060408236031215611c3057600080fd5b6040516040810167ffffffffffffffff8282108183111715611c5457611c54611737565b81604052843591508115158214611c6a57600080fd5b90825260208401359080821115611c8057600080fd5b50611c8d3682860161174d565b60208301525092915050565b6000808335601e19843603018112611cb057600080fd5b83018035915067ffffffffffffffff821115611ccb57600080fd5b602001915036819003821315611ce057600080fd5b9250929050565b60008060008060808587031215611cfd57600080fd5b8435611d08816114e1565b9350611d1660208601611569565b9250611d2460408601611569565b9396929550929360600135925050565b600080600060608486031215611d4957600080fd5b8335611d54816114e1565b9250611d6260208501611569565b9150611d7060408501611569565b90509250925092565b600082611d8857611d886119dc565b50069056fea2646970667358221220066ea2fd560136625d5f0a84a212e6d5825f202b478a6c083efaf61be679f2ca64736f6c63430008170033",
  "linkReferences": {},
  "deployedLinkReferences": {}
}